:100000006DC0D3C608C78FC08EC08DC04CC68BC014
:100010008AC089C088C087C086C085C084C083C0AC
:1000200082C081C080C07FC07EC052005A00600084
:100030005500710050007E004E0087004C0090007B
:100040004A0099004800A3004600AE004400BA00F0
:100050004200C6004000D3003E00E1003C00F0003A
:100060003A00000138001101360023013400360146
:1000700032004B013000FFFF00000A04320B1E0A61
:100080000A00190B001E0804320716000C110A089A
:100090000019FF00140A0B0A0B08070C08FF0102E5
:1000A00002010408102040010204081020408004CE
:1000B0000404010104040404040202020202020214
:1000C000020100003B0038000000320000003A004E
:1000D0003700000031009E05A307AB0711241FBEA7
:1000E000CFE5D1E0DEBFCDBF10E0A0E6B0E0ECEEA2
:1000F000FFE002C005900D92AA36B107D9F720E0C3
:10010000AAE6B0E001C01D92A63CB207E1F710E0FC
:10011000CDE6D0E003C02197FE0156D7CB36D107FC
:10012000D1F78BD357C76CCF512C212C312C4424C1
:100130004394612C712C80B7836080BF83B7836048
:1001400083BF8FB581608FBD8EB58B608EBD89B743
:10015000826089BF789462E08EE890E095D367E68C
:100160008EE890E097D38EE890E086D341E06DE092
:100170008EE890E095D341E069E08EE890E090D37E
:1001800084E990E0AFD440E06DE08EE890E088D361
:1001900040E069E08EE890E083D38AE085BFF8D53F
:1001A0008BB7806C8BBF41E061E08EE890E078C354
:1001B000CF92DF92EF92FF920F931F93C9D50091D8
:1001C000890010918A0020918B0030918C006B0186
:1001D0007C01C01AD10AE20AF30AE0918800F0E03B
:1001E000E659FF4F818190E064E670E0BAD6A0E066
:1001F000B0E0C816D906EA06FB06A0F18FEF681A30
:10020000780AA0918800AE5FA0938800F3018491E2
:100210008F3F79F48EE890E0A2D3612C712C852D6C
:100220008B7F582E1F910F91FF90EF90DF90CF9012
:100230003DC66491B0E0A659BF4F4C918EE890E066
:100240002FD386D56093890070938A0080938B00AA
:1002500090938C00E0918800F0E0E659FF4F818197
:10026000882361F21F910F91FF90EF90DF90CF9064
:100270000895AF92BF92CF92DF92EF92FF920F93C9
:100280001F93CF93DF9300D000D0CDB7DEB7B82E49
:10029000A62EF7D541E06B2D8EE890E001D300E06B
:1002A000C12CD12C76010A1541F160E884E990E077
:1002B00006D468E084E990E002D484E990E009D4AF
:1002C00067E884E990E0FBD384E990E002D462E03F
:1002D00084E990E013D484E990E026D4182F84E9CF
:1002E00090E022D4412F50E0542F4427482BC40ED5
:1002F000D51EE11CF11C0F5FD6CF40E06B2D8EE8C0
:1003000090E0CED2202F30E040E050E0C701B601AF
:1003100039D629833A834B835C83C8D529813A81B6
:100320004B815C81CA01B9010F900F900F900F9023
:10033000DF91CF911F910F91FF90EF90DF90CF90C1
:10034000BF90AF900895CF92DF92EF92FF920F93FC
:100350001F938B019C014D3029F480916200909194
:10036000630004C08091600090916100A0E0B0E063
:1003700080179107A207B30728F4081B190B2A0B53
:100380003B0B03C000E010E098014AE250E086E930
:10039000FA01C590D490E12CF12CC016D106E206EA
:1003A000F30620F4FA013296859194914C5F5F4FE9
:1003B000FA01659174916F3F7F4F51F71F910F9133
:1003C000FF90EF90DF90CF900895EF92FF920F9300
:1003D000CF93DF9300D0CDB7DEB79AE6E92E90E059
:1003E000F92E90ECF7019083818362838EE890E090
:1003F0002A8349834CD2F70183838EE890E04DD263
:10040000F7018483498145832A812683078381EC10
:1004100080870F900F90DF91CF910F91FF90EF9019
:1004200008950F9300E0D1DF0F9108950F9300E03E
:1004300020E0CBDF0F910895CF92DF92EF92FF92F1
:100440000F931F9385D4F3013296E49100918900B4
:1004500010918A0020918B0030918C006B017C01FF
:10046000C01AD10AE20AF30A8E2F90E064E670E027
:1004700078D5A0E0B0E0C816D906EA06FB0608F475
:100480003AC0A301F30184918F3F89F4612C712C50
:1004900045E360916C0080916D00C8DF8AE690E0D2
:1004A0001F910F91FF90EF90DF90CF9013C5B30194
:1004B0006D5F7F4F3B01FB0184918F3F29F48EE8F4
:1004C00090E04DD2F3D408C0FA0134964491FB0178
:1004D00064918EE890E0E4D13BD4609389007093FE
:1004E0008A0080938B0090938C00F3013296E49104
:1004F000EE2309F4C6CF1F910F91FF90EF90DF908C
:10050000CF9008953C01BDD452FE08C086E0809390
:100510008800F30164914091700005C0F3013196A9
:100520004491F30164918EE890E0BAD111D46093C4
:10053000890070938A0080938B0090938C000895BB
:100540000F93CF93DF93EC0109818EE890E09FD168
:10055000081759F009818EE890E09FD1081729F01B
:100560008981893611F080E089C09D819B3C51F5DD
:1005700000916000209161000BC09D3C51F568EC3A
:1005800089E077DE272F062F60936000709361006B
:1005900042ED60916C0080916D0017DF0FC0993CB7
:1005A00008F5953571F54F816E818EE890E078D130
:1005B00046E360916C0080916D0038DF8AE690E040
:1005C00089D407C09C3C38F0903D61F58E818093C2
:1005D0008D0081E053C0983C11F768EC8DE049DE56
:1005E0004DE006C0993CB9F468EC89E042DE49E090
:1005F000AADE282F40ED60916C0080916D0011DF24
:10060000DDCF963531F74F816E818EE890E048D18D
:1006100049856885CACF9A3CE1F600916200209135
:1006200063000EC0913D70F49C3C09F0A6CF68ECCD
:100630008DE01FDE272F062F60936200709363000A
:1006400041EDA7CF9D3D39F4852D8460582E85E975
:1006500090E058DFBECF9C3F59F4852D8061582E25
:100660008E818093640045E368E685E6DFDEB1CFE6
:100670009C3D09F0AECF8AE790E0EBCFDF91CF91C0
:100680000F910895CF938AE690E05ADFC0916C00F5
:100690008EE890E002D1C81304C08AE690E01AD434
:1006A00009C02FE788E391E0215080409040E1F7B6
:1006B00000C00000252D277F522ECF91F7C31F9336
:1006C000CF93DF93C82FDDD340E062E08EE890E067
:1006D000E7D0CC0FD1E011E0CC2389F04D2F62E0C0
:1006E0008EE890E0DDD02FEF80E792E0215080404F
:1006F0009040E1F700C00000D127C150EDCFDF915D
:10070000CF911F91D3C3CF92DF92EF92FF92CF93FD
:100710002ED380936A00803C61F54424439418D31F
:100720006B017C0121D3882351F0C42D21E0240DDD
:10073000422E1DD3EC2FF0E0E659FF4F808308D303
:10074000DC01CB018C199D09AE09BF09893E93409C
:10075000A105B105B8F4E42DED31A0F4E42DF0E0ED
:10076000E759FF4F8081813CE9F68BD3852D886066
:10077000582E09D3882349F0CF91FF90EF90DF9056
:10078000CF90FEC281E09BDFF4CFCF91FF90EF903E
:10079000DF90CF90089580916F00853391F42FE71B
:1007A00088E391E0215080409040E1F700C00000D4
:1007B00048EC68E686E63ADE8AE690E08BD340E0D5
:1007C0002BC0803DC9F52FE788E391E021508040A0
:1007D0009040E1F700C0000020918D0040ED60E006
:1007E00084E61FDE8AE690E075D32FEF80E792E083
:1007F000215080409040E1F700C0000090918D00B2
:1008000080916400891760F44CED60E087E60EDEAD
:100810008AE690E05FD341E062E08EE890E040C07D
:1008200045E360E084E602DE8AE690E053D3252DBE
:100830002F7E522E85E043CF089576DC95D290E04E
:1008400021E030E0452D487053FE02C020E030E04A
:1008500028233923232B11F056DFF0CF411112DF6B
:100860006114710429F052FE02C0A2DC01C0E4DD73
:1008700054FEE4CF90DFE2CFD19A87B38F6187BB7C
:1008800081B3826681BB0895FC0160830895FC01F9
:1008900080810895FC0161830895FC0181810895A0
:1008A0006A3061F148F46730A9F0683061F540932F
:1008B00093001092920008956B3019F06C3099F00B
:1008C00022C080B7411102C08F7701C0806880BF0D
:1008D00046BF089580B7411102C08F7D01C080627C
:1008E00080BF4CBF08958FB5411102C08F7701C002
:1008F00080688FBD50E05BBD4ABD08954093910074
:1009000010929000089570E0FB01E256FF4F4111F4
:1009100016C08491FB01E055FF4FE491F0E0EE0F2B
:10092000FF1FEE53FF4FA591B491EC912E2F30E0B5
:10093000E82FF0E0E095F095E223F3230EC08491D8
:10094000FB01E055FF4FE491F0E0EE0FFF1FEE5387
:10095000FF4FA591B491EC91E82BEC930895CF93C0
:10096000DF93EC0140E067E09BDF40E06CE0CE010C
:1009700097DF40E06BE0CE0193DF40E068E0CE011E
:100980008FDF40E06AE0CE01DF91CF9189CFCF9336
:10099000DF93DC01613031F484E011968C93119780
:1009A00083E005C085E011968C93119786E08C93C7
:1009B0002C9130E0F901E256FF4F8491F901E055A6
:1009C000FF4FE491F0E0EE0FFF1FE453FF4FC5919E
:1009D000D491E881E82BE88311968C9190E0FC019A
:1009E000E256FF4F2491FC01E055FF4FE491F0E007
:1009F000EE0FFF1FE453FF4FA591B491EC918E2FA2
:100A000090E0E22FF0E0E095F095E823F923EC93F5
:100A1000DF91CF9108950895FC01808190E0FC0161
:100A2000E055FF4FE491F0E0EE0FFF1FEE53FF4F54
:100A3000A591B4912C91FC01E256FF4F94918C91B9
:100A4000E49170E0922BE095E82326E08BE340E010
:100A500030E0F89471E0092E322F0C923A95F1F7BC
:100A6000EC93482F4A95F1F7092E60FD0E2E7695EE
:100A7000679591F718950895FC01818190E0843085
:100A800079F480E129E2982F80E89A95F1F7922F86
:100A90000894829B88949A95E1F78795C0F708950A
:100AA00080E129E2982F80E89A95F1F7922F089437
:100AB000839B88949A95E1F78795C0F70895E09114
:100AC0009700EF5FE0939700F0E0EB59FF4F6083F2
:100AD0000895609197006F5F85E690E0C9D010920D
:100AE0009700C9C0CF93DF93EC0163E8E8DF64E1CE
:100AF000CE01E5DFCE01DF91CF91EBCFCF93DF9336
:100B00001092960060939500C5E6D0E088818160E0
:100B100088836F5FCE01ACD01092970088818E7F62
:100B20008883DF91CF91A7C0E0919600EF5FE093BB
:100B30009600F0E0EB59FF4F8081089500C0C59A00
:100B4000C79ABF9ABD9A8FEF8FB98AE28DB980EFAD
:100B50008EB908958EB98BE29DE09A95F1F7000069
:100B60008DB9B79BFECF9AE09A95F1F700C08DB989
:100B7000769BF2CF8DE08A95F1F700008FB19FEF61
:100B80009FB9BD9A0895C79AC79BFECF8DE08A95FD
:100B9000F1F70000C5988AE08A95F1F700C0C79880
:100BA000C59A779905C083E08093980080E0089506
:100BB00081E00895AF92BF92CF92DF92EF92FF92C1
:100BC0000F931F93CF93DF937C01062F9091980092
:100BD000916090939800F701808180FD03C092603E
:100BE00090939800D0DF102FE701BB24BA94AA2479
:100BF000A3948091980083709E012F5F3F4F6901FD
:100C00008823E1F0C79888818FB980EFA3DFBD9872
:100C10008EEFA0DF80919800982F9570943051F45A
:100C2000F701808181608083A0929800ACDF102F53
:100C3000E70110C08E7F809398000BC0BD9880EFB5
:100C400089DF8883113011F4BFB801C01FB88EEF5F
:100C500081DFE601115069F681E0DF91CF911F91AC
:100C60000F91FF90EF90DF90CF90BF90AF900895DD
:100C7000109298009FCFC598C79AB79BFECF8AE085
:100C80008A95F1F700C0C59A8DE08A95F1F70000CA
:100C90009EB1892F807295FD04C094E090939800D6
:100CA000089581E008951F920F920FB60F921124BC
:100CB0008F939F93AF93BF938091C2009091C30095
:100CC000A091C400B091C5000296A11DB11D8093F2
:100CD000C2009093C300A093C400B093C50090914C
:100CE000920080919300981302C0969805C080915D
:100CF0009200811101C0969A809192008F5F80933B
:100D00009200809192008A3011F41092920090919A
:100D1000900080919100981302C0C19805C0809105
:100D20009000811101C0C19A809190008F5F8093E3
:100D30009000809190008A3011F410929000BF9141
:100D4000AF919F918F910F900FBE0F901F901895AC
:100D50002FB7F8946091C2007091C3008091C400D5
:100D60009091C5002FBF0895822D83190895E32D1A
:100D700081E0830D382EF0E0ED55FF4F808108951E
:100D8000212C312C089581E0321408F480E008957C
:100D90000AB606FE03C08AB780648ABF0AB607FE99
:100DA00003C08AB780688ABF08951F920F920FB65A
:100DB0000F9211242F933F934F935F936F937F93E1
:100DC0008F939F93AF93BF93CF93DF93EF93FF9353
:100DD000C22D81E0820D282ED0E08EE990E04CDE1D
:100DE000CD55DF4F88838CE1821508F4CCDFD0DF4E
:100DF000FF91EF91DF91CF91BF91AF919F918F9133
:100E00007F916F915F914F913F912F910F900FBE06
:100E10000F901F9018951F920F920FB60F921124EA
:100E20002F933F934F935F936F937F938F939F93F2
:100E3000AF93BF93CF93DF93EF93FF93C22D81E0E6
:100E4000820D282ED0E089E990E016DECD55DF4FE7
:100E500088838CE1821508F496DF9ADFFF91EF9189
:100E6000DF91CF91BF91AF919F918F917F916F91C2
:100E70005F914F913F912F910F900FBE0F901F9058
:100E8000189580916800873059F48BB7809368007B
:100E90008BB78F738BBF40E061E08EE890E000CDB0
:100EA0008091C1008F5F8093C10008958091C1003F
:100EB000882321F081508093C100089569DF8091DB
:100EC00068008BBF87E08093680041E061E08EE8B6
:100ED00090E0E6CC1F93CF93DF93EC01D2DF80E06C
:100EE000E7ECF0E03197F1F700C0000011E0180FD7
:100EF000FE01E80FF11D60818EE990E08DDD812F0C
:100F0000FE01E10FF11D31979081913C49F780E09E
:100F1000E7ECF0E03197F1F700C0000011E0180FA6
:100F2000FE01E80FF11D608189E990E075DD812FF8
:100F3000FE01E10FF11D31979081913C49F7DF915E
:100F4000CF911F91B3CF61E08EE990E020DD62E0A8
:100F500089E990E01CCD89E990E05DDD8EE990E0C3
:100F60005ACD0024552704C0080E591F880F991F19
:100F7000009729F076956795B8F37105B9F7802D3C
:100F8000952F0895A1E21A2EAA1BBB1BFD010DC0CF
:100F9000AA1FBB1FEE1FFF1FA217B307E407F50729
:100FA00020F0A21BB30BE40BF50B661F771F881F05
:100FB000991F1A9469F760957095809590959B019B
:100FC000AC01BD01CF010895EE0FFF1F0590F49114
:100FD000E02D099410E0CDE6D0E003C0FE01F4DF7F
:0C0FE0002196CE36D107D1F7F894FFCF50
:0A0FEC00D009D2090A260000070010
:00000001FF
